:100000000C942A000C945B030C9447000C9447005A
:100010000C9447000C9447000C9447000C94470044
:100020000C9447000C9447000C9447000C94470034
:100030000C9447000C9447000C9447000C94470024
:100040000C9447000C9447000C9447000C94470014
:100050000C94470011241FBECFE5D8E0DEBFCDBF12
:1000600011E0A0E6B0E0E2E8F8E002C005900D92F1
:10007000AA31B107D9F721E0AAE1B1E001C01D9290
:10008000AF31B207E1F70E94FD020C943F040C94DB
:100090000000CF93DF93C82F8EE40E948B03DC2FE8
:1000A000D07F80911A0184608D2B0E94AF038FEC6A
:1000B00097E00197F1F700C0000080911A018D2BA5
:1000C0000E94AF038FEC97E00197F1F700C00000AA
:1000D00090E1C99FE001112480911A0184608C2B6A
:1000E0000E94AF038FEC97E00197F1F700C000008A
:1000F00080911A018C2B0E94AF038FEC97E001973F
:10010000F1F700C000000E94A903DF91CF9108958C
:10011000CF93C82F8EE40E948B03C07F80911A0179
:1001200084608C2B0E94AF038FEC97E00197F1F76E
:1001300000C0000080911A018C2B0E94AF038FEC4D
:1001400097E00197F1F700C000000E94A903CF914A
:10015000089580931A0180E30E94880080E30E9442
:10016000880080E30E94880080E20E9488008FE37C
:100170009CE90197F1F700C0000088E20E94490065
:100180008CE00E94490086E00E94490081E00E94C4
:1001900049000895CF93DF93C82F8EE40E948B030C
:1001A000DC2FD07F80911A01D82B8D2F85600E9483
:1001B000AF03DA7F80911A018D2B0E94AF0380E19B
:1001C000C89F90011124C0911A01C560C22B8C2FC9
:1001D0000E94AF032C2F2A7F80911A01822B0E944C
:1001E000AF030E94A903DF91CF910895623031F0EF
:1001F000633031F0613029F4805C03C08C5E01C053
:100200008C5A80680E944900089581E00E9449004C
:1002100008951F93CF93DF930097B1F0EC0110E0A6
:1002200007C0FE01E20FF31F80810E94CA001F5F1A
:10023000212F30E0FE0101900020E9F73197EC1BFF
:10024000FD0B2E173F0768F3DF91CF911F910895A3
:1002500080E888BBB09926C0B19926C0B29926C063
:10026000B39926C080E488BBB09924C0B19924C05A
:10027000B29924C0B39924C080E288BBB09922C04F
:10028000B19922C0B29922C0B39922C080E188BB43
:10029000B09920C0B19920C0B29920C0B39920C0B4
:1002A0008EE4089581E6089583E3089582E3089536
:1002B00081E3089582E6089586E3089585E308952D
:1002C00084E3089583E6089589E3089588E3089513
:1002D00087E3089584E6089583E2089580E308950E
:1002E0008AE20895EF92FF921F93CF93DF93CDB7E9
:1002F000DEB764970FB6F894DEBF0FBECDBF0E9485
:10030000050160E081E00E94F60080E690E00E9436
:10031000090161E081E00E94F6008DE690E00E9414
:10032000090162E081E00E94F600E12CF12C0E94BC
:100330002801182F80ED810F8A3098F462E081E067
:100340008E0D0E94F600812F0E94CA00E1E0F0E0CD
:10035000EC0FFD1FEE0DFF1D10832FEFE21AF20AC6
:1003600022C01A3201F5CE0101960E94E40322E078
:100370002BBB6FE170E00E94BC03161617067CF4DD
:1003800080E090E03FE34DE023E0315040402040EA
:10039000E1F700C0000001966817790799F71BBACA
:1003A0000E94E60107C087E893E10197F1F700C0DA
:1003B0000000BDCF64960FB6F894DEBF0FBECDBF70
:1003C000DF91CF911F91FF90EF9008950E9405015A
:1003D00060E081E00E94F6008BE990E00E94090154
:1003E00061E081E00E94F60083EA90E00E9409014A
:1003F00062E08DEF0E94F6008DEA90E00E94090114
:1004000061E08DE00E94F6008CE30E94CA00E12CBE
:10041000F12CCC24C394D12C6894992491F8A12C6C
:10042000BB24B394D0E00E9428018233B9F461E088
:100430008DE00E94F6008CE30E94CA0062E089E031
:100440000E94F60080E20E94CA00C7014096809791
:100450004CF1CB2CDD2EE12CF12C39C0883389F402
:1004600062E089E00E94F6008CE30E94CA0061E02D
:100470008DE00E94F60080E20E94CA00C92CDA2CAE
:100480002DC08A3259F581E0C816D10421F40E94AA
:1004900005010E94750292E0C916D104F9F40E9488
:1004A00072011CC0CB2CDD2E870106581F4FCCEFEC
:1004B00063E08C2F0E94F600F80181918F010E9469
:1004C000CA00CF5FCC30A1F7FFEFEF1AFF0A87E831
:1004D00093E10197F1F700C00000A5CFC701409656
:1004E000809714F3E12CF12CF2CFCF93DF93CDB7AB
:1004F000DEB760970FB6F894DEBF0FBECDBFE12C1C
:10050000F12C0F2EFAE38F2E912CF02D0F2EF4E20A
:10051000AF2EB12CF02D0F2EF8E5CF2EF2E0DF2E0E
:10052000F02D02C0E12CF12C0E942801833211F43D
:100530000E94E601909A20E12A95F1F700C0909878
:1005400080911D0190911E01B4010E94BC038B019A
:100550004AE0BE016F5F7F4FC8010E94020460E065
:1005600081E00E94F60081ED90E00E94090161E0C7
:1005700084E00E94F600C501801B910B4AE0BE0199
:100580006F5F7F4FFC01EC9DC001ED9D900DFC9DC8
:10059000900D11240E940204CE0101960E940901CF
:1005A00081EA90E00E94090161E08AE00E94F60081
:1005B0008CED90E00E94090161E081E00E94F6006C
:1005C000C701409649970CF0ADCF870109541F4FE2
:1005D0000F2EFDEF7F2EF02D63E0872D0E94F60099
:1005E000F80181918F010E94CA007394FDE07F128F
:1005F000F3CF2FEFE21AF20A97CFC0EFC7BB8FEF0E
:100600008ABB8BBB88E00E94A90083EF81BBCBBB78
:1006100083ED90E30197F1F700C0000088E00E94AD
:10062000A9008BB780648BBF85B7816085BF789444
:100630000E94050160E082E00E94F60082EF90E0F7
:100640000E94090162E08FEF0E94F6008CEF90E0BB
:100650000E94090163E08CEF0E94F60088E091E0BF
:100660000E940901E12CF12C0E942801813611F42D
:100670000E94E601C70140964297A4F48701015207
:100680001F4FC0E061E08C2F0E94F600F8018191BD
:100690008F010E94CA00CF5FC031A1F7FFEFEF1AB0
:1006A000FF0A02C0E12CF12C87E893E10197F1F7F2
:1006B00000C00000D9CF1F920F920FB60F921124E5
:1006C0008F939F9380911B0190911C01019769F476
:1006D0001EBC8CB59DB590931E0180931D011DBC61
:1006E0001CBC10921C0110921B0180911B01909167
:1006F0001C01892B49F48EB581608EBD81E090E0AC
:1007000090931C0180931B019F918F910F900FBEBE
:100710000F901F90189594EA96BF06B607FEFDCF7E
:1007200091B1987F983011F0903179F483B984E8D1
:1007300086BF06B607FEFDCF91B1987F983139F09C
:1007400081E0903429F480E0089581E0089580E00C
:10075000089584E986BF06B604FCFDCF089583B9E9
:1007600084E886BF06B607FEFDCF91B1987F81E091
:10077000983209F480E0089597FB072E16F4009450
:1007800007D077FD09D00E94D00307FC05D03EF4C6
:10079000909581959F4F0895709561957F4F08952D
:1007A000AA1BBB1B51E107C0AA1FBB1FA617B70797
:1007B00010F0A61BB70B881F991F5A95A9F78095B3
:1007C0009095BC01CD010895FC0188279927E894F4
:1007D00021912032E9F3293010F02E30C8F32B326A
:1007E00041F02D3239F4689404C00E940D04820F48
:1007F000911D219120532A30C0F31EF490958195CC
:100800009F4F0895BB274A3031F4992322F4BDE26B
:10081000909581959F4F0C9416047AE0979F902DA8
:10082000879F802D910D11240895BB27FB0155272B
:10083000AA27880F991FAA1FA41710F0A41B83953D
:100840005051B9F7A05DAA3308F0A95DA1930097B4
:1008500079F7B111B1931192CB010C942F04DC0103
:10086000FC01672F71917723E1F7329704C07C91E7
:100870006D9370836291AE17BF07C8F30895F89423
:02088000FFCFA8
:100882002047657474696E67204F696C00456E7409
:10089200657220566F6C756D650053656C65637487
:1008A200206F7074696F6E20616E64207072657360
:1008B20073204220627574746F6E002043206F694A
:1008C2006C20002044656E636974792000205F5FAC
:1008D2005F5F5F5F5F5F0050726573732053746F79
:1008E2007020627574746F6E20746F204261636B46
:1008F200006F696C20766F6C756D65006D6C0053CE
:100902006D617274204F696C20737570706C6965CB
:100912007200202057656C636F6D650047726F75BA
:1009220070204E6F2E303400507265737320412058
:0A093200746F2053746172740000AA
:00000001FF
