:100000000C942A000C9498010C9447000C9447001F
:100010000C9447000C9447000C9447000C94470044
:100020000C9447000C9447000C9447000C94470034
:100030000C9447000C9447000C9447000C94470024
:100040000C9447000C9447000C9447000C94470014
:100050000C94470011241FBECFE5D8E0DEBFCDBF12
:1000600010E0A0E6B0E0E0EBF4E002C005900D92F5
:10007000A037B107D9F720E0A0E7B0E001C01D929A
:10008000A537B207E1F70E9428010C9456020C94A0
:100090000000CF93DF93C82F8EE40E94C801DC2FAD
:1000A000D07F8091700084608D2B0E94EC018FECDA
:1000B00097E00197F1F700C00000809170008D2B50
:1000C0000E94EC018FEC97E00197F1F700C000006F
:1000D00090E1C99FE00111248091700084608C2B15
:1000E0000E94EC018FEC97E00197F1F700C000004F
:1000F000809170008C2B0E94EC018FEC97E00197AF
:10010000F1F700C000000E94E601DF91CF91089551
:10011000CF93C82F8EE40E94C801C07F80917000E9
:1001200084608C2B0E94EC018FEC97E00197F1F733
:1001300000C00000809170008C2B0E94EC018FECBD
:1001400097E00197F1F700C000000E94E601CF910F
:1001500008958093700080E30E94880080E30E94ED
:10016000880080E30E94880080E20E9488008FE37C
:100170009CE90197F1F700C0000088E20E94490065
:100180008CE00E94490086E00E94490081E00E94C4
:1001900049000895CF93DF93C82F8EE40E94C801D1
:1001A000DC2FD07F80917000D82B8D2F85600E942E
:1001B000EC01DA7F809170008D2B0E94EC0180E1D0
:1001C000C89F90011124C0917000C560C22B8C2F74
:1001D0000E94EC012C2F2A7F80917000822B0E94BC
:1001E000EC010E94E601DF91CF910895623031F079
:1001F000633031F0613029F4805C03C08C5E01C053
:100200008C5A80680E944900089581E00E9449004C
:1002100008951F93CF93DF930097B1F0EC0110E0A6
:1002200007C0FE01E20FF31F80810E94CA001F5F1A
:10023000212F30E0FE0101900020E9F73197EC1BFF
:10024000FD0B2E173F0768F3DF91CF911F910895A3
:10025000CF93DF93CDB7DEB760970FB6F894DEBFCC
:100260000FBECDBF88E00E94A9008BEF81BB2FE7B6
:1002700038E381E0215030408040E1F700C00000C9
:1002800088E00E94A9008BB780648BBF85B781602E
:1002900085BF78940E9405010F2EFAE3CF2ED12C52
:1002A000F02D0F2EF5E2EF2EF12CF02D03EC12E0E5
:1002B000909A95E89A95F1F700009098A0907300B5
:1002C000B090740060E083E00E94F60080E690E069
:1002D0000E94090161E084E00E94F600C501B601B8
:1002E0000E94F901C701861B970B4AE0BE016F5FB0
:1002F0007F4F9C01209FC001219F900D309F900D4A
:1003000011240E942102CE0101960E9409018AE671
:1003100090E00E94090161E08AE00E94F6008CE60C
:1003200090E00E94090161E081E00E94F600C0CFE8
:100330001F920F920FB60F9211248F939F9380916B
:10034000710090917200019769F41EBC8CB59DB547
:1003500090937400809373001DBC1CBC10927200BB
:10036000109271008091710090917200892B49F474
:100370008EB581608EBD81E090E090937200809395
:1003800071009F918F910F900FBE0F901F90189545
:1003900094EA96BF06B607FEFDCF91B1987F9830DC
:1003A00011F0903179F483B984E886BF06B607FE70
:1003B000FDCF91B1987F983139F081E0903429F4E4
:1003C00080E0089581E0089580E0089584E986BF83
:1003D00006B604FCFDCF089583B984E886BF06B64F
:1003E00007FEFDCF91B1987F81E0983209F480E05B
:1003F000089597FB072E16F4009407D077FD09D0D7
:100400000E940D0207FC05D03EF4909581959F4F08
:100410000895709561957F4F0895AA1BBB1B51E10C
:1004200007C0AA1FBB1FA617B70710F0A61BB70B64
:10043000881F991F5A95A9F780959095BC01CD0109
:100440000895BB274A3031F4992322F4BDE29095F8
:1004500081959F4F0C942D02BB27FB015527AA279E
:10046000880F991FAA1FA41710F0A41B8395505141
:10047000B9F7A05DAA3308F0A95DA193009779F7B9
:10048000B111B1931192CB010C944602DC01FC0135
:10049000672F71917723E1F7329704C07C916D93B8
:1004A00070836291AE17BF07C8F30895F894FFCF29
:1004B0004F696C204C6576656C0020006D6C000007
:00000001FF
